S00F0000475255425F4B65792E7333372D
S214000000C00A0020ED090000F5C70100F5C7010091
S21400001039D50100F5C70100F5C70100F5C7010095
S214000020F5C70100F5C70100F5C70100F5C70100D7
S214000030F5C70100F5C7010003C70100F5C70100B9
S214000040F5C70100F5C70100F5C70100F5C70100B7
S214000050F5C70100F5C70100F5C70100F5C70100A7
S214000060F5C70100F5C70100F5C70100F5C7010097
S214000070854D0000F5C70100F5C70100F5C7010072
S214000080F5C70100F5C70100F5C70100F5C7010077
S214000090F5C70100F5C70100F5C70100F5C7010067
S2140000A0F5C70100310C00000D0C0000F5C701007B
S2140000B0F5C70100CDAA0100F5C7010015B501007E
S2140000C0C96C0200C56C020005AD0100D56C0200CB
S2140000D0CD6C0200EDB40100D16C020055B50100F4
S2140000E0E58E0100A9900100C5B50100F5C7010025
S2140000F0F5C70100F5C70100F5C70100F5C7010007
S214000100F5C70100F5C70100F5C70100F5C70100F6
S214000110F5C70100F5C70100F5C70100F5C70100E6
S214000120F5C70100F5C70100F5C70100F5C70100D6
S214000130F5C70100F5C70100F5C70100F5C70100C6
S214000140013800D0FCE77047002370B5404C0546E8
S2140001508AB0E36318B1008823600AF059FF3D486F
S21400016026F011F93C4E3D4B304633603C4B7360F5
S21400017021F070F80021304614F038FE32A3D3E99F
S2140001800023A062C4E9062321F06FF8D4E9062311
S21400019019431043C4E90601CDE900014FF0FF33CF
S2140001A04FF0FF32A06A26F069F902224FF0FF31C5
S2140001B0A06A26F068F901200AF0AAFC4FF4007342
S2140001C000222849A06A26F0B1F9B0F5007F38D1A0
S2140001D000239422CDE9073309933C23CDE903326B
S2140001E005939623A06A03A9069314F01DFF35B362
S2140001F0287C0BF0BBF80546F0B9A06A26F077FA23
S2140002000BF062F80AF066FC20B14FF48070002113
S21400021007F0EAFB0AF06EFC20B14FF40060002104
S21400022007F0E2FB21F0ECF8012014F033FE0E4A52
S2140002300E49A06A21F00CF828460AB070BDFF20CF
S214000240D7E70725F8E700BF0DD5015520000000C9
S214000250500F0020690345EC7821002095A9000086
S21400026088210020781F0020F911020039120200B0
S2140002700348044B834202D0034B03B11847704730
S214000280DC0E0020DC0E002000000000064B0749B4
S214000290C91A891048BF0131491003D0044B0BB16D
S2140002A001481847704700BFDC0E0020DC0E002017
S2140002B00000000010B5064C237843B9FFF7D8FFBE
S2140002C0044B13B10448AFF300800123237010BD24
S2140002D03C2900200000000078C5020008B5054B48
S2140002E01BB105490548AFF30080BDE80840FFF79D
S2140002F0CDBF00BF00000000B011002078C502008E
S214000300A3F5803A704700BF174B002B08BF134B6E
S2140003109D46FFF7F5FF00218B460F461348144A0B
S214000320121A26F038FD0E4B002B00D098470D4BC6
S214000330002B00D098470020002104000D000D4837
S214000340002802D00C48AFF300801BF061FB2000B1
S21400035029001CF0CAF91BF049FB00BF000008008A
S2140003600000000000000000C00A0020DC0E002094
S214000370542A002000000000000000001022014B5C
S2140003801A67704700E00350F7B5102500240127D0
S2140003900E4EF760736903F4A073B3F5807FF9D14E
S2140003A0314668461CF0F4FB013D009B15F0FF0546
S2140003B01C44EED141F2E8232009584340F6FF736F
S2140003C0B0FBF3F080B203B0F0BD00BF0040005AAF
S2140003D013B5134C2378FF2B07D1124B18780DF06A
S2140003E05DFF41F2883004F0FFFCFFF7CDFFADF86B
S2140003F004002078FF280CD00222202101AB0DF04B
S2140004009DFF0222002101AB20200DF081FF02B0EB
S21400041010BD044B022118780DF066FFF1E700BF0F
S214000420DE0C0020DF0C002007B501213A2000F08A
S21400043007FE042200231146022001F005FB0023DC
S21400044004220321022001F0FFFA022100230846BD
S214000450012201F0F9FA002304220521022001F00E
S214000460F3FA00F0A9FB0222012311461046CDE95B
S214000470003301F08FFA0220024903B05DF804EB66
S21400048000F0B2BBDDC6010070B51E4D90B01E4830
S21400049006AC04F0A9FCFFF7C7FF0FCD0FC40FCDC5
S2140004A00FC495E803000026032384E80300012117
S2140004B0164C2A20CDE9016600918DF80630CDE96C
S2140004C00366059600F0BCFD32462046104901F052
S2140004D021FB40F2BA4309930223ADF81A3041F2E9
S2140004E001038DF8110006AA204603A9ADF80030D6
S2140004F001F050FB6A46204601A91CF016FB10B01E
S21400050070BD00BF6078020020A107000040005ABE
S214000510002D31011FB50368534A23F47F4323F0AF
S214000520070393425AD00DD802F17F42934251D02E
S21400053002F58022934262D0A2F5102293421CD08C
S21400054004B010BD494A934279D002F51022934276
S214000550F6D1B0F80540202CF2D1C379012BEFD1AB
S2140005600389012BECD1FFF70FFFADF80C004048D4
S21400057002222146007803AB72E06FF01D013D4C6D
S214000580084603AB0DF10A020DF0EEFE20460DF014
S2140005904BFE00B1FEE7022120780DF091FE0346E7
S2140005A000B1FEE74FF4C8620090114620780DF0C7
S2140005B053FE00B1FEE7022120780DF095FE0346BB
S2140005C000B1FEE701222C4900922C482C4A00F08C
S2140005D019F9B5E7027B264B1A70B1E7FF22254CC6
S2140005E0234B022120781A700DF06AFE00B1FEE758
S2140005F0022120780DF078FE0028A1D0FEE7B0F8A2
S21400060005301B2B9CD1C37A012B08D110241D4B1F
S2140006101D481C6704F0E8FB1C4B1C6790E7022B88
S21400062001D10824F3E7032B8AD11022154B41F29F
S21400063088311A670023164A16480093C7E74268AF
S214000640012A7FF47DAF0A4B1878FF283FF478AF75
S2140006501D21114B5B6FC3F380038DF80C3003AB89
S2140006600DF06CFE6CE700BFA0000601A0000103C1
S214000670DE0C0020DF0C002000974901001200204D
S214000680D103000000D00350E093040000E00350C4
S2140006907D030000C811002000C0035010B5234C95
S2140006A000F0A8FD00F084FF236F23F0070343F05B
S2140006B0030323671CF0C0F91D4B00209B6A9B07B1
S2140006C05EBF01221B4B9A62D4F8203123F003034D
S2140006D043F00203C4F82031D4F8243123F0070392
S2140006E043F00203C4F82431D4F8403123F0030366
S2140006F043F00103C4F84031D4F8603123F003031B
S21400070043F00103C4F86031D4F8403223F0030309
S21400071043F00103C4F84032D4F8003223F0070354
S21400072043F00103C4F8003210BD00BF0080005043
S21400073000C0005000E0005008B501F071FC012830
S2140007400ED1104B04205A6E4FF480230E495203EC
S21400075058BF0E4A4B6601F51041086258BF5366F3
S21400076003F0E8F903F08CF903F0ACF91CF0DEFEB8
S214000770FFF794FF03F094F900F06CFABDE8084028
S21400078003F072BB008000500090005000A00050A4
S21400079038B505461CF06CF900230B4A14685CB1AA
S2140007A0AC4206D1A96A6BB199621CF067F90120C8
S2140007B007E02346A46AF2E7002DF3D01CF05EF9AA
S2140007C0204638BD1160F0E73812002010B5044608
S2140007D098B104F079F82046FFF7DAFF10B194F8E4
S2140007E02C300BB9002010BD1CF042F9044A1368E7
S2140007F0013B13601CF042F9F4E72220F3E700BF48
S2140008003C1200202DE9F04385B0054691469846F7
S2140008100E469DF8307009B9002F5CD12846FFF7C8
S214000820D5FF0446002836D185F82C00686304F00E
S21400083043F9864233D904F0D9F82146844640F27B
S214000840E7304FF47A720023E6FB0C011AF03EFF05
S2140008504FF0FF3200231AF039FF2B46E886114688
S2140008602846CDE900441D4A1CF0DCFE044690B93B
S214000870C5E9089885F82D702E631CF0F9F8184A1B
S214000880136833B31A469B6A002BFBD1956200238C
S214000890AB621CF0F3F8204605B0BDE8F08347B124
S2140008A02B4631462846CDE900440C4A04F0C2F8EF
S2140008B0DCE7304603A904F09FF804460028EAD196
S2140008C02B462846CDE90077044A03991CF086FE9D
S2140008D0CCE71560DBE72124DDE700BFE508000074
S2140008E03812002091F82C3013B50C4683B98B8E45
S2140008F0CA8E93420ED243B9CDE9003320460B464A
S214000900104A4FF0FF311CF04DFEA38E0133A38634
S21400091002B010BD52B191F82D307BB10123009387
S214000920D1E908232046096BFFF76CFF0123064A2E
S21400093084F82C30136801331360E9E7084603F0A7
S214000940C3FFF3E7E50800003C1200202DE9F04164
S214000950144E336823B34FF00008134F1CF088F88A
S21400096005463C6824B92846BDE8F0411CF086B828
S21400097094F82C3093B1336884F82C80013B3360B4
S21400098094F82D3013B92046FFF702FF28461CF0D6
S21400099075F8D4E9083120469847DFE7A46AE1E70E
S2140009A0BDE8F0813C12002038120020034B1B6883
S2140009B0002B14BF04200120704700BF3C1200200B
S2140009C0024B1868B0FA80F0400970473C120020CD
S2140009D00348044A0449121A92101BF00CBF00BFC9
S2140009E0A8C90200A8C90200542A002008B500F0D1
S2140009F02FF8FFF7EDFF124B12498B4212D300205F
S214000A00114B12498B4218D3FFF77EFC186850F83A
S214000A102240586840F82240013298688242F5D356
S214000A200C33EAE70022F8E71C6844F8220001329B
S214000A305C68A242F8D30833E4E70022F8E700BF78
S214000A4080C502008CC502008CC502008CC5020061
S214000A504FF400414FF0FF30124B134A10B59A6026
S214000A60D3F8882042F47002C3F888200F4A9166B3
S214000A7001F1884101F5005210664FF6DF705066AE
S214000A800220C3F8D000BFF34F8FBFF36F8F082448
S214000A904FF440330648C0F88041D36004600B61D1
S214000AA010BD00BF00ED00E0000000000090005008
S214000AB000E100E0014B1868704700BFC40A002040
S214000AC0084B1B6F03F00703022B04D0032B05D043
S214000AD0012B05D0FEE7044B18687047034BFBE775
S214000AE00348704700800050C40A0020CC0A00204B
S214000AF0002D310108B5FFF7E3FF054B1B6FC3F36D
S214000B0003330133B0FBF3F0024B186008BD00BF9F
S214000B1000800050C00A00200048704700B4C4049B
S214000B20014B1868704700BFCC0A0020054B1860C0
S214000B30054B1B6F03F00703032B01D1FFF7DABF4A
S214000B40704700BFCC0A0020008000500048704765
S214000B50002D3101014B1868704700BFC80A0020FD
S214000B600346054A0549106803448B428CBF4FF084
S214000B70FF301360704700BFD00A002000800020BE
S214000B8070B5044601250B4E04B970BD94FAA4F066
S214000B90B0FA80F005FA00F306EB001224EA03042C
S214000BA05368002BF0D0117B11B191689847EBE7A2
S214000BB09847E9E74012002008B5192000F024FD08
S214000BC028B14FF00072074BC3F880211A601A2034
S214000BD000F01AFD28B14FF08062024BC3F8802166
S214000BE01A6008BD00E100E038B505460C461BF06B
S214000BF03FFF0022044B03EB05135C601A73BDE84D
S214000C0038401BF03BBF00BF40120020074BD3F814
S214000C102404D3F8202403F50053104000F0553088
S214000C2020F05020C3F82004FFF7AABF00C00350EE
S214000C30074BD3F82404D3F8202403F500531040C0
S214000C4000F0AA3020F0A020C3F82004FFF798BFD9
S214000C5000C00350024B1968024B186813F0D8BC4A
S214000C60D40A0020F40A002070B5940022460546F7
S214000C700E4626F0D5FD431C0AD058B9224631460A
S214000C80284626F05EF80028034808BF002070BDFE
S214000C900248FCE70248FAE710E000F021E000F026
S214000CA024E000F010B5044626F0BEFD431C10D02C
S214000CB088B901F0BDF9234620F00300204498428D
S214000CC001D1002010BD53F8042B0132F7D00348A1
S214000CD0F8E70348F6E70348F4E700BF0EE000F045
S214000CE021E000F024E000F008B51BF0BAFE014B4E
S214000CF0186008BD301B0020014B18681BF0B5BEFD
S214000D00301B0020044BD3F88420D206FBD4D3F843
S214000D108400C0F3811070470040005038B5104B77
S214000D200546D3F820310C4603F00303022B0BD004
S214000D30032B0DD0012B0FD1FFF7BCFE052305B109
S214000D40286004B1236038BDFFF7EAFE0323F6E708
S214000D50FFF7FCFE0223F2E701230020EFE700BFC7
S214000D600080005073B50D4600210E4B0191D3F85C
S214000D708041064604F00304012C09D0022C0CD056
S214000D800C460EB1019B336005B12C6002B070BDFD
S214000D9001A8FFF7C3FF0F24F3E7FFF7D7FE019084
S214000DA0EFE700BF0080005038B5184B0546D3F873
S214000DB024010C4600F00700062823D8DFE800F0E0
S214000DC0040A121A1E0E1600012305B1286004B18B
S214000DD0236038BDFFF76EFE0523F6E7FFF76AFED1
S214000DE00623F2E7FFF79CFE0323EEE7FFF798FEE5
S214000DF00423EAE7FFF7AAFE0223E6E71BF006FD58
S214000E000723E2E700231846DFE700BF0080005014
S214000E1038B5104B0546D3F840310C4603F00303B3
S214000E20022B0BD0032B0DD0012B0FD11BF0F0FCA7
S214000E30092305B1286004B1236038BDFFF78AFE98
S214000E400823F6E71BF0E7FC0B23F2E7012300205C
S214000E50EFE700BF0080005038B5144B0546D3F8C6
S214000E6000020C4600F0070004281BD8DFE800F05C
S214000E7003090D111500012305B1286004B1236094
S214000E8038BD1BF0C5FC0923F6E7FFF763FE082311
S214000E90F2E71BF0C0FC0B23EEE7FFF72BFE0E235A
S214000EA0800AE9E700231846E6E700BF0080005006
S214000EB038B5104B0546D3F840320C4603F0030312
S214000EC0022B0BD0032B0DD0012B0FD11BF0A0FC57
S214000ED0092305B1286004B1236038BDFFF73AFE48
S214000EE00823F6E71BF097FC0B23F2E700231846CF
S214000EF0EFE700BF0080005038B5104B0546D3F82A
S214000F0060310C4603F00303022B0BD0032B0DD0ED
S214000F10012B0FD11BF07CFC092305B1286004B11E
S214000F20236038BDFFF716FE0823F6E71BF073FCB8
S214000F300B23F2E701230020EFE700BF00800050FC
S214000F4010B40D4C0B46D4F8204204F00304012CD8
S214000F500AD0022C0CD008B1002101600BB100228F
S214000F601A605DF8044B70475DF8044BFFF7D6BE79
S214000F705DF8044BFFF74CBF0080005038B50C46B8
S214000F8005461BF06EFD054B9A6A54402C405440B3
S214000F909C62BDE838401BF068BD00BF00C0005032
S214000FA0B0F5207F1FD009D8B0F5007F15D003D844
S214000FB068B1B0F5C07F0AD000200CE0B0F5607FC5
S214000FC0FAD10B4BD3F88000C0F3011003E0084BB6
S214000FD0186FC0F3033001307047054BD3F890000C
S214000FE0C0F30460F7E7024B186FC0F38020F2E707
S214000FF0008000504FF400320E4B014610B5002022
S2140010009A66FFF7CDFF484341F671320A490B4B0B
S214001010884294BF00200120DC69DA639A6822F4D3
S214001020401242EA00529A60E20344BF0022DA63AA
S21400103010BD00BF00900050005A6202000003502E
S214001040420910B50FD0012A0FD00A4B0A4C022ACB
S21400105018BF234600F01F0049B103F58053012254
S21400106082401A6010BD1346F4E7044BF2E703F51E
S2140010700053F4E76880005060820050648000509F
S21400108008B580201BF00FFC034B98429EBF4FF420
S2140010908032024B1A6708BD005A620200A0005058
S2140010A01FB50023B0F5807F019377D028D8382865
S2140010B000F094800BD82438092810D809280ED8B8
S2140010C0DFE800F0676767670D0D620D377D522811
S2140010D05FD008D83D283BD03E2800F08480019899
S2140010E005B05DF804FB8028F9D1414B1B6F03F077
S2140010F00703013B032BF2D8DFE803F044413F6CC3
S214001100B0F5D06F5BD019D8B0F5A06F66D00AD80E
S214001110B0F5806F3DD0B0F5906FE0D1002001A90A
S214001120FFF742FEDBE7B0F5B06F2DD0B0F5C06F2D
S214001130D5D1002001A9FFF76BFED0E7B0F5006F10
S214001140ECD00AD8B0F5E06F4DD0B0F5F06FC6D150
S214001150002001A9FFF7D0FEC1E7B0F5086FBED1A9
S214001160234BD3F8003103F00303022B2CD0032BC0
S2140011702ED0012B30D1FFF7D3FC032300E005234C
S2140011800193ACE70223FBE7002001A9FFF7EAFD85
S214001190A5E7002001A9FFF7C1FDA0E702934FF0E5
S2140011A0E0231B695B0705D5FFF7A4FC0C2303931C
S2140011B0039BE5E703A902A8FFF72AFEF8E700204D
S2140011C001A9FFF749FE8AE7FFF7C4FC0823D7E723
S2140011D01BF01CFB0723D3E70123D1E7002001A95E
S2140011E0FFF7AEFE7BE7002001A9FFF761FE76E77A
S2140011F0008000504FF40022034B5A66012203F58C
S21400120080439A62704700BF0090005008B5FFF711
S21400121047FF082811D00938012802D94FF6FF7079
S21400122008BD4FF40012064B5A6603F5D8335B6AC6
S214001230DB07F3D54FF4FA70F2E7024B1888EFE7B6
S21400124000900050CC0C0020F8B504468020FFF734
S21400125027FF032800F087804FF40022424B02212C
S2140012605A6645F60E03414AC2F88030404B9962F2
S214001270012103F580539962936DD903FCD4D4E918
S21400128000131B0543EA0163E17B94F820500B43EF
S214001290217BE77E43EA0143617B6D0143EA01332C
S2140012A0A17B43EA811313619169D4E904031B0609
S2140012B043EA806301F000410B43A17E94F82300CB
S2140012C00B43217E43EA0143617E43EA0123936197
S2140012D0136AE66923F00D0394F8221043EA8703A5
S2140012E0002E2DD11362966A94F8213045EA031336
S2140012F026F033052B4343F0010393621D4D1B4B31
S2140013009A6D35EA0202FBD10222194DAA621A65CD
S2140013109A6D5200FCD41A69A56822F4700242EA5B
S21400132005521A614FF00042114B9A6119B9022218
S21400133003F580539A6278B901220F4B9A620BE04C
S214001340334343F008031362936A23F033030343E3
S2140013502B4343EA4103936294F824301BB1034BBA
S214001360064AC3F88020F8BD0090005000C0005028
S21400137000D000500300014000E00050F1A7FFFF3E
S2140013801E4BFF2870B59E6A35D89A6D12F4803FC2
S21400139018BF01211A4A18BF9162022191629B6D03
S2140013A0DC0303D5154A936D9907FCD50222144B2E
S2140013B0124D1A65AC6D14F08044FBD1114AAB692E
S2140013C092F9002023F47F03024423F47F4382F340
S2140013D0080243EA002343EA0243AB613146022097
S2140013E0FFF7CCFDAB6DDB0303D531460120FFF7DD
S2140013F0C5FD204670BD2124FBE700BF00C000509D
S21400140000D000503D290020014B93F900007047A2
S2140014103D29002001221548154B816A9A62826D8B
S21400142002F00302032AFAD102229A621A650F4AD0
S214001430936D5B00FCD40F48936D30EA0303FBD139
S21400144001220B4B1A65A3F580539A6D9007FCD4C6
S2140014509A6D9207FCD50222054B1A65034A936DD6
S2140014609B07FCD50320FFF789BD00BF00C00050D6
S21400147000D0005003000100014B1880704700BFE9
S214001480CA0C00204FF4001208B5184B5A66022307
S214001490174A5360936813F48033FBD1012822D196
S2140014A0FFF73EFB134B984215D003F5122303F5C6
S2140014B0F863984213D0104B00EB8002400AB3FB4F
S2140014C0F0F3520A0A49CA620B6301234B620022F8
S2140014D0074B5A6008BD45F67A13084AF2E745F608
S2140014E01A03074AEEE75362F1E700BF0090005088
S2140014F00040025000F0490264666666D8B80500EF
S214001500BBCF0500B0F5207F10B50C4642D008D8FA
S214001510B0F5007F33D003D888B1B0F5C07F0ED0C9
S21400152010BDB0F5607FFBD11F4A4C1ED2F880304C
S21400153023F0300343EA0413C2F88030F0E71BF0D0
S214001540AAF91BF074FA4FF48031184B164A196743
S214001550136F013C23F4704343EA04331367FFF729
S214001560C9FA0446FFF7CEFBC0F1020120461BF085
S21400157058FA00F02DF8BDE81040FFF781BD0A4A82
S2140015804C1ED2F8903023F0F85343EA0463C2F8B6
S2140015909030C5E7044A4C1E136F23F4806343EA79
S2140015A084231367BCE700BF008000500090005003
S2140015B008B50121022000F0F5F81BF06CF91BF0CD
S2140015C036FA4FF48032014B1A6708BD009000507F
S2140015D008B54FF4C0701BF066F9BDE80840044932
S2140015E0884294BF012102214FF42070FFF78ABF82
S2140015F080F0FA02034B5868C0F30800003818BFA2
S2140016000120704700ED00E0054B420953F82230F8
S21400161000F01F0023FA00F0C04300F001007047FE
S21400162000E100E010B5224B70B94FF40031214ABA
S2140016301860516602F598325268012A03D11E4A94
S214001640D2F800211A6010BD1B68002BFBD01B4A85
S2140016505268012AF7D0184A8020C2F80031FFF7F6
S2140016601FFD05281FD14FF4C070FFF799FC012815
S214001670044604D102214FF4C070FFF743FF07224F
S2140016800F4B1A610122A3F580535A600B4A136967
S214001690DB07FCD5012CD6D12146BDE810404FF41F
S2140016A0C070FFF72FBF0122064B5A60CBE700BF82
S2140016B0341B0020009000500080005000C00150F5
S2140016C000E0015000D00150044A4178536F23F4E3
S2140016D0407343EA01235367704700BF0040005041
S2140016E010B5044610B10020FFF79CFF104A13699E
S2140016F043F00403136102F0B9FE1BF0C2F90D4B70
S2140017000D4AC3F820241BF0ACF926F085F81BF030
S214001710ACF91BF0B7F902F0D1FE1CB9BDE81040D9
S214001720FFF7E8B90120BDE81040FFF77BBF00BF18
S21400173000ED00E000E003500000FF0F10B5044687
S21400174010B10020FFF76EFF0E4A136943F0040342
S21400175013610D4B0D4AC3F8202402F087FE1BF0E0
S21400176080F926F059F81BF080F902F0A7FE1CB9A4
S214001770BDE81040FFF7BEB90120BDE81040FFF7F6
S21400178051BF00BF00ED00E000E003500000FF0F77
S214001790034A0179D36E23F030030B43D3667047B8
S2140017A000400050F8B504461C4BD3F88420D10600
S2140017B0FBD4D3F88430C3F381139C422CD0FFF7BC
S2140017C07FF9012C064602D121461BF02AF91BF0B0
S2140017D048F94FF00072124B07465A6620461BF037
S2140017E058F94FF480630D4D621E93402B676B6E65
S2140017F09A0103D4D5F884309B060AD538461BF0E8
S21400180034F9022C08D13046BDE8F84000211BF020
S21400181008B9D5F88430EAE7F8BD00BF00400050AC
S2140018200060005010B50C4608B9FFF749F9074BA1
S21400183021461B783BB1064B984204D80120BDE8F0
S2140018401040FFF7AFBF0220F9E700BF3E29002097
S214001850005A62020278034B012100201A70FFF73B
S214001860E1BF00BF3E2900204FF0004238B5264BAE
S21400187026495A6601224A604AF6CD3103F50B2303
S2140018805D6C1964154030BB9968C9070BD40024F9
S21400189001221F4B5A6015B11E4B1F4A1A6424F0D2
S2140018A005FE204638BD1A498A601C4AD96ACC070C
S2140018B005D4904201D10724EAE70130F6E79042CA
S2140018C0E5D1F8E70132DC6A14F0080406D08A4253
S2140018D0F8D10724DFE700221049F4E78A42F8D05F
S2140018E020220B4B0B495A620122A3F580539A60C3
S2140018F023460A4A486A800603D49342E9D0013355
S214001900F8E79342C7D1E4E7009000500050095032
S21400191000600950004009503254FFFF40420F005B
S2140019204FF0004238B5174B174C5A66012203F5A4
S2140019300C235A604AF6CD33656C23644378934093
S2140019401343124AD363C3788178A2689B0043EAA4
S214001950011322F074021343A3600279837943EAE9
S214001960022323614279C37943EA02236361007844
S214001970FFF77AFFEB0744BF054B236424F096FD80
S214001980012038BD00900050004009500040005033
S2140019903254FFFF072A2DE9F041154698464FF0CE
S2140019A0030401F003072DD89600B44000FA06F2AF
S2140019B021461C481BF06EF821461B4807FA06F223
S2140019C01BF068F8194B1A499DF81800B8F1000F7B
S2140019D018BF1946012303FA05F50D60154B164985
S2140019E0002818BF0B461D60144B9DF81C00C3F85A
S2140019F02054103103F22443002818BF0B461D6004
S214001A00BDE8F081A2F10806B600B44000FA06F27E
S214001A1021460B481BF03EF821460A4807FA06F214
S214001A20CEE700BF00C4035008C4035010D40350D0
S214001A3010E4035014E4035014D4035000E00350A1
S214001A4004C403500CC40350F8B504460D461F46A4
S214001A5016464AB101238B403021184A01FB00226A
S214001A60F7B141F21001535004EB4403072D4FF039
S214001A700F014FEA031316D8A80006FA00F28140B9
S214001A800F4818441BF006F84EB9012330210B4AC4
S214001A90AB4001FB042277B141F210015350F8BD70
S214001AA042F21001DFE7A5F10800800006FA00F216
S214001AB081400448E5E742F21001EFE700C003501A
S214001AC004C003500CC00350084608B569B92A2064
S214001AD01AF0E9FEB0B10C4B984206D90B4B9B6846
S214001AE0C3F302730133B0FBF3F0094B00F5742027
S214001AF000F23F20B0FBF3F001387F2828BF7F209C
S214001B00C0B208BD0120F0E7005A62020040005A49
S214001B1040420F000B4B10B5994228BF19460C46A1
S214001B201AB92A201AF0BFFE0246631E1344B3FBFE
S214001B30F4F0A34228BF00F1FF30032828BF03209B
S214001B40C0B210BD005A620210B51048104C002BEF
S214001B5008BF04468C4228BF0C461AB92A201AF041
S214001B60A2FE02469DF8083040F2FF300133B2FB79
S214001B70F3F2631E1A44B2FBF4F3A24228BF03F149
S214001B80FF33984228BF184610BD00BF80969800C5
S214001B90404B4C002DE9F04F2DED048BDFF83483DD
S214001BA00F4687B01446414600220546FFF7B2FFAF
S214001BB07E79864238BF064628461AF07AFF38797C
S214001BC0F6B250B92A201AF06EFE4045014628BFEC
S214001BD0B0FBF6F12846FFF777FFFB7832071B01CC
S214001BE002F0E04203F03003134300043A7800F4B6
S214001BF0FE0003430AB143F002037A780AB143F0C9
S214001C000403BA780AB143F00803AB60FB883A894C
S214001C102B617B8943EA02432B62A44B9D4200F072
S214001C203F81012305F580556B6007B0BDEC048B42
S214001C30BDE8F08FD0F880015BB91FFA80F9DFEDC0
S214001C409C7A79E0D0F880714FEA1749002B00F0B3
S214001C50F4804FEA0A1101F1B441C2F3090201F51A
S214001C6080414A6008F101081434B8F1020FD8D058
S214001C7000222378DFF834928E488F49A768934273
S214001C8018BF0146009648460393FFF75DFF09EB31
S214001C900819D9F84810BAB2039B824201EA0B0130
S214001CA038BF024603F003000843617894F803C087
S214001CB0890001F01C010843A1784FEA081E0903B9
S214001CC001F4E04101434FEA0C4000F4E0200143F8
S214001CD0207C08F1050A400500F4600001432079E5
S214001CE0000700F040500143C9F84810D9F8487082
S214001CF07248C7F30237013F042F00F296800FF2B6
S214001D00080959F827F000BF351C0000351C0000F4
S214001D10451C00001D1D0000111E0000D0F8847137
S214001D20002B96D1D0F88C311FFA87F91B145B0074
S214001D3007EE903AF8EEE77A01230EF1B44E0EF570
S214001D40804EDEF8480029F4C047C0F3820000F158
S214001D50010E03FA0EF309EE103ABF0419F4004F11
S214001D60B8EEC99AF6EE008A544B18BF47F0004703
S214001D70002866D1D3F88C311BB208EE103AB8EEC4
S214001D80C88A38EE278ABCF1000F71D105A80392E5
S214001D9000F02EF9DFED4A7A28EE278A039A9FEDA7
S214001DA0497AC7EE097A9FED487A67EE877AB1EEF0
S214001DB0007AB7F1004F48EE077A0BD0DFED436AA2
S214001DC007EE109A37EEA66ABAEEE87AF0EE667A72
S214001DD057EE067AF5EEC07AF1EE10FACBBFF1EECA
S214001DE0677A78EEE78A77EEE87AFDEEE87AC8BF9B
S214001DF0FDEEE77A17EE903AB3F5003F47DB6FEA61
S214001E0057476FEA474729484FEA0A13C75020E763
S214001E10D0F88471002B7FF41CAFD0F88C314FEAD9
S214001E2017491B1403EB430382E7D0F880011FFA1F
S214001E3080F9002B3FF403AF0BE7D0F88C311B146E
S214001E4076E7D3F89001D3F8883100B207EE100A8F
S214001E50B8EEC77A1BB277EE677A69EE286A08EEA4
S214001E60103A87EEA67AB8EEC88A38EE078A8AE76E
S214001E70D4ED037ADFED166AF8EE677A87EEA67A77
S214001E80F7EE046AC6EE877A27EE888A87E713F5A8
S214001E90003FAABFC3F3110347F400371F43B2E75E
S214001EA04FF00008DFF830B0DFE600BF0040005A11
S214001EB000000000404B4C00809698000080E00F29
S214001EC03D3B843F00008043000020440000004962
S214001ED000007A44005A6202E08F18CF4FF40032B6
S214001EE0054B9A6641F6713203F51C33DA6301221C
S214001EF003F50053DA6070470090005041F67132E7
S214001F000121064BDA6303F50052D1600022DA6342
S214001F104FF40032A3F518339A667047000003505A
S214001F20CB784A7810B55B010C7843EA82030A79CD
S214001F30234343EA02130C22424302F1B0421363E6
S214001F40012C02BF8A78024B43F8202010BD00BF48
S214001F50E880035008B54FF0B0435A686AB958B1E4
S214001F605B680BB11AF01CFE01210D4B59601AF08C
S214001F7017FE4FF0B043D96008BD5B680BB11AF08E
S214001F800FFE0028F0D11AF00BFE4FF0B0430222ED
S214001F90DA601AF005FE0122024B5A60ECE700BF39
S214001FA000100058002000584FF0B0414B6810B5A4
S214001FB00BB11AF0F5FD01220B4BC4785A608378FA
S214001FC0934043EA840344782343047943EA0413A2
S214001FD0447943EAC4038B60044B5A600378C3F128
S214001FE00203CB6010BD00BF002000580010005850
S214001FF04FF48032064B5A6603F5E6235B69C3F35B
S2140020008512827003F03F021B0B4270037070470C
S21400201000900050014B986CD96C70470080E00F20
S214002020024B1868C0F30740704700BF0080E00FFF
S2140020300120034B9B680A3303F01F039840704748
S2140020400080E00F38B50446054D24F053FA0FCC57
S2140020500FC594E8030085E80300002038BD00BFE4
S214002060381B002047F6FF739A42F0B56FD002295E
S2140020706FD8394B5B5C012B6BD8384DDF0005EB16
S214002080C30415F83330A178012B13D10025E0786E
S214002090401AA84202D80844C0B2F0BD431B666886
S2140020A0A0EB530336F913609642D4BF1D4603F1E6
S2140020B0FF30EEE760680028EFD0B0F900409442A9
S2140020C004DBB0F902409442B8BF144683883D440E
S2140020D0FF2B19BFC8224FF0280CB0F90620B0F924
S2140020E008C0A2EB04030CBF0126002693FBFCF3FA
S2140020F033446E781BB29E4201DD002B01DA731E5C
S2140021001BB24FF47A7C01339BB2071D5D1E2DB2C5
S2140021104FEAC50E00EBC505EA88AD689E4214FB83
S214002120025222EAE27202F15C02B2FBFCF204DD29
S21400213037F8335001339542E8D200EB0E03988807
S214002140904228BF1046884238BF0846A4E7FF20C2
S214002150A3E70020A1E700BF557B0200381B002044
S2140021600229F0B555D82C4B585C012851D82B4C79
S21400217004EBC00114F830004B6801280FD1C87872
S2140021808C78904294BFC4EB0001C4EB0201001BA4
S214002190CAB28242C8BF002233F91200F0BD002B3B
S2140021A037D08878904202D3B3F90200F6E7CC78AD
S2140021B0B3F900009442F1D94C789988013CA1F11A
S2140021C0FF06714203F10405E4B2714103F10C0706
S2140021D0CEB2B44216D805EBC1014FF47A756A4305
S2140021E0B1F902404968521A04EBD47102EB61025D
S2140021F092FBF4F29042D1DBB3F902009042CDDCC0
S21400220010B2CBE737F831C04E1C9445E3D33146C5
S214002210DEE70348C2E700BF557B0200381B0020FC
S2140022200080FFFF08B50448FFF70CFFBDE8084034
S214002230012024F063B900BF587B020000487047B5
S214002240CE0C00207FB51422002101A824F0A3FDA7
S214002250044B01A94FF0FF30029324F084F907B035
S2140022605DF804FB006A18001B0603F0706300F0BC
S2140022700F000902034301F47061120402F4702295
S2140022800B431343014A1360704700BF0020025CF3
S21400229060B5054619B10139B1F5806F0FD2094E08
S2140022A0F06810F48030FBD143EA012312072B4379
S2140022B002F08052134343F00043736060BD012078
S2140022C0FCE700BF0020025C0122054B9A60DA683A
S2140022D0D203FCD4D86820F00F000004000C70472E
S2140022E00020025C014B1868704700BF0040025C8B
S2140022F0014B5868704700BF0010025C014B186B1A
S214002300704700BF0010025C014B1868704700BFA2
S2140023100010025C014B9860704700BF0010025C22
S214002320014B1864704700BF0010025C014B5864F4
S214002330704700BF0010025C014B5863704700BF37
S2140023400010025C0022014B1A6070470010025C0D
S214002350024A136843F00103136070470010025CE2
S214002360024A136823F00103136070470010025CF2
S21400237043F20402014B1A60704700BF0010025C73
S214002380024A136843F03003136070470010025C83
S214002390044B1A6842F480721A601A6822F480723B
S2140023A01A6070470010025C024A136843F48063A8
S2140023B0136070470010025C034A136823F470230E
S2140023C043EA0043136070470010025C044B1A692E
S2140023D002605A6942609A698260DB69C36070472E
S2140023E00010025C0268044B1A6142685A618268F7
S2140023F09A61C268DA6170470010025C024B1A6B81
S214002400D207FCD4186270470010025C0322024B0D
S214002410186019615A6370470000025C82B01FB5ED
S21400242007930A9B04AC8B4228BF0B4604E90700BF
S2140024301048D100079948BF03330160099948BF87
S21400244023F0030323F0704301F0E041194341F009
S21400245000518160002102F0E042019C1A4342F0E4
S2140024600052C16004618261416304B0BDE810405F
S21400247002B070470000025C3F22034B1A63102232
S214002480DA6103229A6370470000025C024AD36B4B
S2140024909B07FCD4704700BF0000025C044B9B6A9D
S2140024A013F0240F14BF012000208000704700BFE7
S2140024B00000025C08B5FFF7F1FF064BDB6B23F468
S2140024C07F4323F0EF0303431EBF0122024BC3F8F2
S2140024D0FC2F08BD0000025C00F0FF3F4368182B8D
S2140024E00AD0202B1DD0102B2BD1174BD3F8043439
S2140024F0DB010AD401207047134BD3F804349A0149
S214002500F8D50B6843F008030B6003680F4A934244
S21400251010D10B6843F040030B600023436000209B
S2140025207047094BD3F804345B01E3D50B6843F0DE
S2140025300403E9E7064A9342F1D10B6843F08003AF
S214002540EAE70720704700BF0000025C4029002031
S2140025503F2900200B4607B50749D1F80414C907E0
S21400256008D5002100920246084600F05BF803B04A
S2140025705DF804FB0120FAE70000025C1346064AF9
S214002580D2F80424D20504D50A46014600201AF0E3
S21400259011BD0120704700BF0000025C13B5084C57
S2140025A0D4F80444E40508D5009313460A460146C9
S2140025B0002000F061F802B010BD0120FBE700BF6C
S2140025C00000025C13B5084CD4F80444E40508D5B2
S2140025D0009313460A460146002000F071F802B048
S2140025E010BD0120FBE700BF0000025C70B504468A
S2140025F00D4616468CB00A4A09AB07CA83E80700A0
S2140026001A462146CDE90563CDE90333CDE901330A
S21400261000954FF480301AF0F9FB0CB070BD00BF87
S214002620DC7B0200F0B51C465B6815468DB01A07C9
S214002630129E1AD1CBB17268934216D10C4B0D4A3A
S21400264053F8217009AB07CA83E807001A462946E3
S214002650CDE90533CDE90333CDE90163009447F4B2
S21400266080701AF0D3FB0DB0F0BD0720FBE700BF6B
S214002670E87B0200DC7B0200F0B516465A688DB097
S214002680102A0D46129F15D17A68102A12D10A4ACE
S21400269009AC07CA84E8070022462946CDE9054763
S2140026A0CDE90344CDE90144044800961AF0AEFB98
S2140026B00DB0F0BD0720FBE7DC7B02003000010018
S2140026C0F0B516465A688DB0102A0D46129F15D1E1
S2140026D07A68102A12D10A4A09AC07CA84E80700A9
S2140026E022462946CDE90574CDE90344CDE90144E7
S2140026F0044800961AF08AFB0DB0F0BD0720FBE7F1
S214002700DC7B02001000010082B070B586B0149D1C
S21400271003AE202D86E807000B9359D805EB8503FA
S2140027208B4203D006236B438B4253D10C9BAB42A8
S21400273050D10F9BB3EB450F4CD1129A934249D11F
S214002740012229462220159BFFF7A2FD044630BB36
S214002750034606220E210C20FFF786FD0123CDE955
S21400276000332B4696E807001AF0E3FA0E230BAA6E
S214002770009307CA2B461AF027FA0C23164C009330
S2140027800EAA2B4607CA1AF04FFA636823F07F0397
S21400279043F026036360FFF797FD30B1062420461A
S2140027A006B0BDE8704002B07047636823F07F0350
S2140027B043F022036360FFF787FD04460028EDD14F
S2140027C0062311AA009307CA2B461AF060FAE6E71A
S2140027D00124E4E70724E2E70020025C70B598B025
S2140027E0002843D02C4C08AD0FCC0FC50FCC0FC51E
S2140027F00FCC0FC594E80F0085E80F006D4604AEB9
S21400280004F1100320340FCB85E80F0094E80F0086
S21400281086E80F00FFF7BCFD0420FFF7CDFDFFF7AD
S214002820A7FD3046FFF7DEFD002408AE56F8040B81
S2140028300134FFF7E3FD102CF8D1FFF759FD03280C
S214002840FBD90024FFF77EFD2646FFF74BFD55F823
S214002850043B01365840042E44EA0004F5D12CB15E
S214002860012206200D4B1A7018B070BDFFF790FDC0
S2140028700820FFF74FFD0020FFF752FD0720FFF767
S21400288055FD4FF40070FFF757FD0820FFF794FD45
S214002890FFF75EFD0020E7E7C47C02004229002027
S2140028A008B5FFF775FD0122014B1A7008BD00BF81
S2140028B0412900201FB51AF0FCFC044630B1012265
S2140028C006240D4B1A70204604B010BDFFF70AFD13
S2140028D00090FFF707FD0190FFF704FD0290FFF759
S2140028E001FD03906846FFF77DFDFFF7D9FFFFF770
S2140028F047FDFFF759FDE6E74229002006289ABF64
S214002900014B185C00207047247D020030B5154B43
S21400291087B00293144B0390049346F611030D46BA
S214002920059300F077F91428044616D168461AF085
S2140029306AFD4FF0A843032202A95A6319601D617D
S2140029409A63DA6B9207FCD1142C02D168461AF00F
S21400295068FD00F093F9044601E00028E9D020461F
S21400296007B030BD501B0020040000202DE9F04FBA
S214002970B1B005468C469E46E8466F4EDDF8EC90B4
S214002980409C06F1100A474630687168083603C74F
S2140029905645B846F7D13E9B03EB0208C8F1000A3D
S2140029A00AF00F0AB9F1000F00F09D80C9F1000788
S2140029B007F00F070121DDF8FCB044F00050C4F129
S2140029C01006CDF810B005910690300200F4F850CD
S2140029D040F021000790B9F1000F40F08680CDF856
S2140029E020D047F00050002D00F08480099121216E
S2140029F00A9041EA07210B9142F00050CDF830C012
S214002A003D9B08A94FEA0A2C0D910E904CF0410010
S214002A100F901093002A75D13E9B119143F00053FE
S214002A2012933C9B1390149310AB1593434B444A5C
S214002A30169340F611031793424B0021002D08BF52
S214002A401346189314AB19933F4B10221A93112375
S214002A501B931CAB184624F09EF901221D920022FF
S214002A6046F0804603461E96239205B9EB46102C88
S214002A70CDF880B024AE4BD101232246002130464B
S214002A802193229424F087F920AB002125938F42CE
S214002A9018BF334647F0804226923A9A2CA82892CE
S214002AA02993B2FA82F35B0949EA837310222B91C9
S214002AB02A9324F070F9B9F1000F00D028AED04464
S214002AC048F080432CA918A82D962E93FFF71EFFDA
S214002AD030B92DB90346A34225D1002818BF2C20B3
S214002AE031B0BDE8F08F102764E7CDF820E049F05C
S214002AF0005078E7002C3FF479AF04A90991012132
S214002B000A9076E73E9B0CAA11924120129388E722
S214002B101022002130462193229424F03CF9002C08
S214002B20B2D10123B1E703F1C0026A4412F8C02C07
S214002B3001331043CFE700BF2B7D020010000020BA
S214002B40407D0200447D020004000020F0B5C0294C
S214002B509FB0DDE9244557D0B1F5807F04D08029A9
S214002B6048D029201FB0F0BD01265CB140F23447A2
S214002B700294102403960494212401970594069544
S214002B8002AC0AE040F21447029410240396049420
S214002B902124059401240197069507940125102405
S214002BA0089409950A9221220B950C940D92174AC7
S214002BB00AAD0E92164A0F95109242F61102119225
S214002BC0129313951494159201AA1692D3B112ABD0
S214002BD01793042318931123199316AB1A901B937B
S214002BE040F61103C9081C911AA806A91D93FFF701
S214002BF08DFEB7E7012614B94FF48267C4E74FF499
S214002C008667B5E70EABE3E70F20ABE73C7D020037
S214002C101000001038B5164B5A6E42F004025A6681
S214002C20D3F8802242F00102C3F88022114B5B6881
S214002C30C3F3080343B14FF0A842D36B13F0430F1E
S214002C40FBD11424204638BD4FF0A843DC6B14F0AB
S214002C504304FBD1084D2B681BB90421284602F01B
S214002C60F9FA2B68013343F000432B60EAE700BF14
S214002C700080005000ED00E0501B0020014B0020BB
S214002C805B68704700ED00E04FF40052034B0020F5
S214002C909A660322C3F86022704700BF0090005077
S214002CA04FF40052034B00209A660322C3F86022BA
S214002CB0704700BF00A00050012300F01F02A0F5DF
S214002CC006200949A0F550604009934051F820209D
S214002CD01A4341F82020054951F8202022EA030231
S214002CE041F82020704700BF681B0020541B0020BE
S214002CF00121A0F506230E4AA3F550635B0900F0F8
S214002D001F00814052F82300014342F8231009496E
S214002D10D1E90030034488680344C868096903445D
S214002D205B1802BFC2E90033C2E902331361704781
S214002D30541B0020681B00202DE9F04FA9B0039219
S214002D401D4604460822339ECDE90401414021FA7F
S214002D5002F34B40980702F1080218BF9B00202A96
S214002D601C44F4D18123B4FBF3F303EBC313E41A3E
S214002D70734B04F506241B7804F55064002B3ED1F3
S214002D80FDF768FF074620B16FF0910029B0BDE857
S214002D90F08F0146402208A823F0FDFF4022394666
S214002DA018A823F0F8FFDFF8B481DFF8B491C34623
S214002DB00BF10F0ACDF800A0102208A95B46D9F83F
S214002DC0000023F026F90022014608F1100808AF9B
S214002DD0914246D1CDF800A05B461022D9F80000FB
S214002DE018A923F01FF94FF0000A834618AFD34501
S214002DF041D1544B9845DAD10122514B1A704FF00D
S214002E00810A4FF00008DFF85CB1A4F50627A7F5A5
S214002E1050635B095BF8232004F01F01CA40D20709
S214002E203DD4494A52F82330CB40DB072AD5B8F1C7
S214002E30000F08BFA0468123A7F6FF47B7FBF3F3B2
S214002E4003EBC313FF1A07F50624BAF1010A04F5CB
S214002E505064DAD1039BBBB1B8F1000F14D04446DE
S214002E6019E057F8040BCDE90612FFF725FF079A7D
S214002E7006990132ACE757F8040BFFF739FF0AF161
S214002E80010AB4E7039B13B96FF08B007EE7B8F135
S214002E90000F18BF4446349B00201C6076E7329B28
S214002EA013B10023329A13600EB10023336010234F
S214002EB0DFF8AC9000932A4600232146D9F800009C
S214002EC011F018FD60BB32992A68204BC9B99A42A6
S214002ED006D02146D9F8000011F0A4FD0028D3D171
S214002EE0D5E90223DDE90410834208BF8A42A2D155
S214002EF0039B002BCFD06B68012BCCD16FF08400E6
S214002F0044E7102032999A420860E2D1002EE7D0BA
S214002F1033462146D9F8000018AA11F03FFD48B103
S214002F200B4B9842D5D00B4B9842D2D00A4B9842C6
S214002F30D6D029E7329A336812689B1A3360CFE7F7
S214002F404329002000710800541B0020105D175E06
S214002F50FFDF00F011E000F0FEDF00F0006D08007B
S214002F60F40A0020681B00202DE9F04F87B0824647
S214002F70894698461646DDF840B02AB1002B4FD059
S214002F8040F26C739A424ED8BBF1010F4ED8002423
S214002F9006F110073946012005941AF0C3FB0546D2
S214002FA0002846D021463A4623F0F5FE05ABCDE98B
S214002FB0014300942B46012250464946FFF7BCFECB
S214002FC0044680B110F18C0F08BF6FF08D043A46AE
S214002FD00021284623F0DFFE28461AF0B3FB2046E1
S214002FE007B0BDE8F08F144BC5E902A92B60C5F801
S214002FF004B02EB13246414605F1100023F080FEA3
S214003000059E0E483B462A463146006811F0DAFB1C
S21400301018B93046FFF750FED9E76FF09104D6E7AF
S2140030206FF08604DBE76FF09104D8E76FF0850455
S214003030D5E76FF08C04D2E7105D175EF40A002027
S2140030402DE9F0438DB08146DDE914780E4615462D
S2140030501C469BB1B8F1000F05D16FF086063046CE
S2140030600DB0BDE8F083002FF7D0B7F1005FF4D3C2
S214003070C3F1005303F500439F42EED8102200210F
S21400308008A823F088FE002207AB029305AB019345
S21400309006AB31460093484608ABCDE90522FFF75C
S2140030A04BFE06460028DAD1059BA4B1AB4215D8E4
S2140030B053EA0504D1D1069B0B48C8F8004000949B
S2140030C03A46079900682B4411F014FC002818BFF4
S2140030D06FF09106C3E7AB42EDD2BEE75B1B9C42A6
S2140030E028BF1C46E7E700BFF40A002030B58DB0C5
S2140030F00C4605461022002108A823F04CFE0022AC
S21400310007AB029305AB019306AB21460093284616
S21400311008ABCDE90522FFF70FFE0446D8B9099B98
S214003120012B1BD0079D104B2946186811F07AFC1E
S214003130B8B90122A5F506230C49A3F550635B092F
S21400314005F01F00824051F823004240284641F80F
S2140031502320FFF7CDFD20460DB030BD6FF0840470
S214003160F9E76FF09104F6E7F40A0020681B0020E8
S2140031702DE9F04F89B007460E46FFF7C5F8C007A1
S21400318009D4042401201AF0A1F880B3013CF9D137
S2140031906FF0920028E0102200210DEB020023F0D1
S2140031A0FAFD04A8FFF712F9049B002BE9D0059B53
S2140031B0002BE6D0069B002BE3D0079B002BE0D02D
S2140031C00025DFF8808008F10409B54219D34FF4D2
S2140031D08A74FFF793F800F00E03062B2DD1C30573
S2140031E001D5FFF7BDF8002009B0BDE8F08FFFF766
S2140031F085F810F00E03FAD0022BF8D04105DFD583
S214003200C4E7FFF775F8A6EB050A8400544528BF07
S214003210544699E8030000238DE80300CDE90543F2
S21400322007EB050BCDF810B0029404AAD8F80030CE
S21400323007CA19F044FF2544C7E724FA03F3DA0760
S214003240A6D5C6E7507D02001FB504A800E90E000B
S21400325011460198FFF78CFF70B1FFF721FBBFF313
S2140032604F8F0749074BCA6802F4E0621343CB60EE
S214003270BFF34F8F00BFFDE705B05DF804FB00BF4E
S21400328000ED00E00400FA052DE9F0438BB0174688
S214003290DDE91545DDE913269C46DDE91738894644
S2140032A021B96FF086000BB0BDE8F083002FF8D090
S2140032B00EB9002CF5D1129909B9002AF1D10DB931
S2140032C0002BEED1B8F1000FEBD0244A944541D143
S2140032D00288B2F5105F3DD14288B7EBD20FE0D33B
S2140032E022F04001802902D0B2F5807FD9D16CB39C
S2140032F0AE421CD23219954219D29C42D1D83146E0
S2140033002246284623F02DFD2E4614F00F03C8D182
S214003310CDE90197CDE90336CDE90543CDE907545C
S2140033200993FFF7B1FC38B16FF09200BBE79C42FF
S214003330EBD96FF08900B6E707AA04A901A8FFF742
S21400334009F90546FFF7ACFC0543EDD10020C8F8A7
S2140033500040A8E76FF08500A5E700BF00444004E2
S2140033602DE9F04FA9B0834617469A460E46DDF87B
S214003370C890DDF8D88029B96FF08603184629B0C2
S214003380BDE8F08F002AF7D0B9F1000FF4D0349BD7
S214003390002BF1D0B8F1000FEED00024424B0CAD5C
S2140033A093E8070085E807003C22214619A81894F0
S2140033B023F0F1FC3388728803F4E040B0F5804FC8
S2140033C0DAD03A4E3A480BEA060646F010668642CF
S2140033D063D1B2F5807F60D147F2121293425CD17E
S2140033E00620344ABAF11F0FD3680E940B93136964
S2140033F0126800FB03F3CDE90C23BDD9339B402BA9
S214003400BAD9359B1F2B4BD909F1010220261292FF
S214003410402299F800300F97042B18AFCDE91324FB
S214003420CDE91572109611941794A5D1FFF72CFCD0
S21400343003460028A2D10B9B15AACDE9086305AB6D
S21400344007CA83E8070002AB12AA07CA83E8070088
S214003450DDE910018DE803000F9B95E80700FFF7F4
S21400346053F90546FFF71CFC55EA000384D13D4698
S214003470349A20AE2C4603CCB442106051602546E8
S21400348002F10802F6D100221146B9540132402A50
S214003490FBD12022C8F8002070E76FF085036DE7A7
S2140034A06FF089036AE700BFDC7B02000000FFF6CE
S2140034B000000209F07B0200F0B50E461D468BB0F8
S2140034C0002853D0002951D0002A4FD0002B4DD0D1
S2140034D0048804F44F43B3F5824F03D06FF08500A1
S2140034E00BB0F0BDE3B224F0FF04B4F5E24FB0F841
S2140034F002C0F3D1122B01D0172BEFD10CF107012C
S214003500B2EBD10F4FEAD10733D31D4A04ACBCF55A
S214003510807F07CA84E80700E0D1122B07D1194B39
S2140035201A691B681344CDE904320023069300236E
S214003530CDE907670993FFF7A7FB0028D0D1124A09
S21400354002AB92E8030083E803000AAB13E903002A
S2140035508DE80300079B94E8070019F035FD044644
S214003560FFF79EFB204307D12F60B9E76FF0860078
S214003570B6E76FF08900B3E76FF09200B0E700BFE0
S214003580DC7B0200F07B0200487D02002DE9F04360
S2140035908FB01D46DDE916C600285CD000295AD03B
S2140035A0002A58D0002B56D0BCF1000F53D0002E66
S2140035B051D0038803F44F44B4F5824F51D1DCB2A6
S2140035C023F0FF03B3F5824F40884AD0122C01D077
S2140035D0172C46D1C31DB2EBD30F4FEAD3083AD30C
S2140035E04FEA4802571C674538D8B0F5807F38D177
S2140035F0122C18BF4FF000094FF0000308BF1C4CF8
S214003600CDE9081805F1010114BF4C46D4F80C901A
S214003610CDE90B120A930D93FFF736FBC0B9CDE93F
S214003620058902AB08AA07CA83E807000EAB13E9B0
S21400363003008DE803000B9B94E8070019F0E3FCF9
S2140036400446FFF72DFB20430ED104232B70376072
S2140036500FB0BDE8F0836FF08600F9E76FF08900E1
S214003660F6E76FF08500F3E76FF09200F0E700BF33
S214003670F07B02002DE9F04389B00E4615461F4642
S214003680DDF8488020B96FF0860009B0BDE8F08309
S2140036900029F8D0002AF6D0B8F1000FF3D003883E
S2140036A003F44F42B2F5824F02D06FF08500ECE78C
S2140036B0DAB2122A01D0172AF7D123F0FF03B3F5A6
S2140036C0E24F41D14488C8F8004044B9EB00B3F556
S2140036D0807FC8F80030E8D1122A0DD108E0E31D3B
S2140036E0B5EBD30FCFD1B4F5807FDED1122A29D126
S2140036F0354B1C681B691C440023194670192C4462
S21400370014F801CD10F8012D1143B2EB0C020CBFDA
S2140037104FF0FF3C4FF0000C86420CEA030343EAEE
S2140037200203EDD10029AED0002BACDA109B9D42EF
S21400373046D82A463146384623F0E2FA119B002046
S2140037401D60A2E70024D7E73378042B9BD16B1EBD
S214003750DB005B08B3F5807FC8F80030A5D1122ADD
S21400376006F1010318BF4FF000094FF04002059321
S2140037704FF000030ABF144C4C46D4F80C90CDE929
S2140037800623FFF781FA00287FF47FAFCDF80C9070
S214003790D8F800300733DB08029308AB13E90300C0
S2140037A08DE80300059B94E8070019F0D9FC044651
S2140037B0FFF776FA00287FF468AF002CB6D062E7F1
S2140037C06FF0890061E700BFF07B02000388B3F565
S2140037D0105F0ED14388DB08103B102B0CD8084A2C
S2140037E022FA03F313F0010F14BF00206FF08600D7
S2140037F070476FF0850070476FF08600704700BF17
S214003800010101002DE9F04F8FB01546DDE918A93A
S2140038101E46DDF868801C9F09B300B3B8F1000FA0
S2140038201DD0E7B1BAF1000F02D1B9F1000F16D1E1
S214003830274B26F47E129A42B0F802B044D1FFF726
S214003840C5FF0446A8BBB5EBDB0F4FEADB0306D388
S21400385016F47C1FC6F3054504D0102D03D96FF06F
S214003860860426E010251B9A95422AD8CDE9011336
S21400387000231022CDE905930DF12809CDE9033A7E
S214003880CDE90823CDF81C90FFF7FEF9044680B971
S21400389007AA04A901A8FEF771FE0646FFF700FA7C
S2140038A0044656B958B92A464946404623F028FAEF
S2140038B03D6020460FB0BDE8F08F6FF09204002503
S2140038C0F6E76FF08904F4E76FF08504F1E700BFD0
S2140038D00002C0032DE9F041069F0C461646054639
S2140038E010B309B302B9FBB96288B3EBD20F4FEA43
S2140038F0D20819D34C220021284623F04CFA0D4B4F
S21400390027F47E129A4212D12046FFF75FFF044644
S21400391038B942463146281D23F0F2F9C5F824800E
S2140039202F602046BDE8F0816FF08604F9E76FF05F
S2140039308504F6E70002C0032DE9F0410E46144662
S2140039400546002840D000293ED092B103682148A1
S21400395023F47E1383423AD1AF6BF7B1C7F1100858
S21400396007F128004245284406D2274423F0C8F928
S214003970AF630020BDE8F081424623F0C1F9102273
S214003980103C3C19AA63F4D0284605F1280119F02A
S21400399090FD0028EED14644A863102C0CD9671E73
S2140039A027F00F073A463146284619F082FD0028D0
S2140039B0E0D1E41BDDD03E442246314605F1280026
S2140039C023F09EF9AC63D4E76FF08600D2E76FF081
S2140039D08800CFE70002C0032DE9F04388461F4663
S2140039E005468BB070B169B163B10368234923F40F
S2140039F07E1088423ED113F47C1FC3F3054604D0E4
S214003A00102E03D96FF086042AE0102696422BD893
S214003A10FFF73AF9044618BBAB6B05F12802CDE96F
S214003A2001236B6A2A1DCDE904231023CDE9083053
S214003A3007AB1A460390069005F13C0901A904A8B5
S214003A40CDF81C90FEF7BEFD0546FFF729F90446A3
S214003A506DB928B932464946404623F051F93E60D2
S214003A6020460BB0BDE8F0836FF08904F8E76FF0EE
S214003A709204F5E76FF08504F2E700BF0002C0038A
S214003A8007B56B46054A1068516803C36846FDF7DC
S214003A9047FF002003B05DF804FB00BF5C7D02001A
S214003AA013B50024064A6846536F43F00103536774
S214003AB000948DF80440FDF76BFE204602B010BD62
S214003AC00040005030B58BB06C46174D0FCD0FC47C
S214003AD00FCD0FC495E8030084E80300134BD3F81A
S214003AE04C2112031CD5A3F5FE431C884FF6FF732A
S214003AF09C4208BF48248DF81940FDF785FC2044F9
S214003B0080F308008DF818000948FDF70FF868469E
S214003B10FDF79AFB3220FDF7AFFC00200BB030BD5E
S214003B20D3F85041E4B2E6E7647D02000080E00F7F
S214003B3000F049026FF00403502110B50A480B4C00
S214003B4013F0800F03F1010207D12344402A83F8C3
S214003B5000131346F4D1002010BD03F00F03043BFE
S214003B60034419761346EBE700ED00E000E100E0C1
S214003B70BFF35F8F074B5A6A22F480325A62D3F83B
S214003B80942022F00102C3F89420BFF34F8FBFF3B6
S214003B906F8F704700ED00E070B52948294CFFF79D
S214003BA0E7FF8442284D294919D1D5F8C03023F0C3
S214003BB0FF0343F0A003C5F8C0304FF080430A6807
S214003BC0214D234EC5F8982043F00103013284426C
S214003BD0C5F89C60C5F8A0300A601ED00DE0D5F888
S214003BE0C02020F01F03203B22F0FF0242F0A0027C
S214003BF0B3F1005FC5F8C020E1D2164B0A68124840
S214003C0023F01F0343F00303C0F89820C0F89C304D
S214003C10114B0132C0F8A0300A60BFF35F8F052257
S214003C20094BC3F894205A6A42F480325A62BFF3B2
S214003C304F8FBFF36F8FBFF34F8FBFF36F8F70BD84
S214003C40FC0C0020D40E002000ED00E07C1B0020C1
S214003C5003000020F30E0020E1FFFF3FF8B51446F6
S214003C60FFF786FF1F2C27D90027C2062A4D1CBF48
S214003C7020F01F0020302A68CB06284B18BF21F002
S214003C801F01FCB2A2422BD8D3F8C04020F01F0080
S214003C9024F47F4444F4807421F01F01C3F8C0402C
S214003CA040F00300C3F8982041F003010132C3F846
S214003CB09C00C3F8A0102A600020BFF35F8F052287
S214003CC0164BC3F894205A6A42F480325A62BFF305
S214003CD04F8FBFF36F8FBFF34F8FBFF36F8FF8BD5C
S214003CE0C3F89840D3F89C40D3F8A06024F01F0493
S214003CF0A04226F01F0601D1B142DDD0B04201D865
S214003D00A14207D2D3F89840013724F0FF04C3F845
S214003D109840B6E72820D0E77C1B002000ED00E0A6
S214003D20BFF34F8F0549064BCA6802F4E06213439F
S214003D30CB60BFF34F8F00BFFDE700BF00ED00E094
S214003D400400FA05054B1A782AB95B78002B0CBFDD
S214003D500320022070470120704700BF4E29002034
S214003D600329F8B598BF124B05460E468CBF0024B3
S214003D705C5C032805D8DFE800F002080B0E44F070
S214003D8002040C4B1F684FB9F8BD44F00804F8E76E
S214003D9044F02004F5E744F08004F2E77B681A68F4
S214003DA0144203D0314628465B6898473F68EAE7E6
S214003DB08C7D0200AC1B002038B5104D2B78ABB1C3
S214003DC00F4C23781BB100F0B7FB002323700020B4
S214003DD019F0C2FB0B4C50B100F000FC002301218F
S214003DE020782B70FFF7BCFF0123237038BD01221B
S214003DF0054B1A702278054B1A70F7E74929002000
S214003E0047290020502900204A2900204B2900205D
S214003E1010B518F026FE064B04461B781BB1BDE80D
S214003E20104018F022BEFFF7C7FF2046F7E700BF96
S214003E3046290020094A137830B101331370084B25
S214003E401B78012B03D87047013B13707047054B56
S214003E501B780BB9FFF7B0BF704700BF4E29002094
S214003E60502900204A29002070B518F0FAFD124E9D
S214003E70054633789BB900F0EDFC044620B1284691
S214003E8018F0F3FD204670BD0C4818F0C7FC00F093
S214003E9093FF0B4B1C6000F0A9FD0A4B186000F066
S214003EA02BFA19F05BFB084B002418600123284608
S214003EB0337018F0DAFDE5E751290020AC1B00202E
S214003EC0801B0020A81B0020841B00202DE9F8433F
S214003ED0284A0138135C39B1274F01333978135417
S214003EE0012904D8BDE8F883013B1354FAE7FFF72D
S214003EF029FF0128044635D818F0B3FDDFF8848082
S214003F00054698F8003013B31C4E33781BB90122CF
S214003F1032701B4A1370DFF8709099F8003023B1A6
S214003F2000F00AFB002389F80030284618F09DFDB3
S214003F30012019F011FB18F094FD337805461BB1EB
S214003F4000F04CFB00233370002388F8003028462E
S214003F5018F08BFD3878A042C4D02146FFF700FF4A
S214003F603C70BFE70329F5D10228F3D119F0FAFA1D
S214003F70F0E700BF4E2900205029002046290020E7
S214003F804A290020492900204729002010B5044668
S214003F9018F067FD002C0CBFFF210121064A13789C
S214003FA00B44DBB21370B3FA83F3BDE81040034A48
S214003FB05B09137018F059BD4D2900204C290020CC
S214003FC038B518F04EFD094B05461B78012B04D872
S214003FD018F04BFD0024204638BD054B1C6800F049
S214003FE047FB0444284618F040FDF4E7502900201B
S214003FF0801B002038B54160044618F032FD0546A7
S2140040002146044818F00DFC2846BDE8384018F054
S2140040102CBD00BFAC1B0020054B1B685843054B4E
S21400402000F5742000F23F20B0FBF3F0704700BFAD
S214004030A81B002040420F002DE9F04F85B0EFF39B
S214004040108772B6AFF3008018F09FFB00286FD081
S214004050804EDFF82C82337823B10020FFF7EAFE8B
S21400406000233370FFF76EFE0446002867D0841ED8
S214004070E4B2012C6AD9FFF765FE01280546764CA6
S214004080DFF8009200F28C802078854240F0C680EF
S214004090207800F0D7FA99F8003013B16F4B1B78F0
S2140040A02370AFF3008007B962B6EFF3108772B6DD
S2140040B06B4B1A7852B100221A70684B20781B7826
S2140040C0984203D101212170FFF74AFE654800F0AF
S2140040D0FBFB18F069FB05460028BCD1624BDFF8F5
S2140040E09481187098F80030ABB189F80000DFF8BA
S2140040F08C9199F800301BB100F01EFA89F8005038
S214004100002019F029FA002800F09B8000F066FADB
S214004110002388F80030337823B10020FFF78AFEAA
S2140041200023337000212078FFF71AFE0023237047
S214004130AFF3008007B962B605B0BDE8F08F3378FC
S214004140002B98D0FFF776FE347094E7002003A982
S21400415000F008FC044600288DD1D8F80030039AF9
S2140041609A4205D80120FFF765FE0123337082E7E7
S2140041703E4B1D6800F07CFA039B05449D42F1D23D
S21400418000F08EFA8200039942F0020292B2CDE964
S21400419000422346364A491B324819F0E4F96AE7DA
S2140041A0344BDFF8C4A093F800B0BBF1000F25D164
S2140041B000F046F92078854230D19AF800307BB975
S2140041C02C4D2B78002B7FF463AF2B4B1B7823B939
S2140041D000F0ACF90122294B1A7001232B7057E727
S2140041E0022DEDD18AF800B015E02378022B25D1F8
S2140041F000238AF8003022F0B9FA1FE020788542C2
S2140042000CD19AF80030002B3FF442AF022DD7D1E4
S21400421000238AF8003022F0A9FAD1E70023DFF85D
S21400422048A08AF8003099F8003013B92946FFF7FD
S21400423097FD9AF800302570002BD6D1012DBFD8F7
S21400424026E7012000F0FEF907B962B6EFF3108703
S21400425072B655E748290020502900204B29002037
S21400426044290020881B00204C290020801B0020A9
S214004270113E0000492900204D2900204729002032
S214004280841B00204A29002010B518F0EAFB002203
S214004290044B1C781A7018F0E8FB00F0CFFC2043A3
S2140042A0C0B210BD4529002073B5114E04463378C0
S2140042B083420FD04FF400730E4DADF8043058B162
S2140042C001A8FDF701FA4020FFF7A6FE2B68181A92
S2140042D02860347002B070BD8DF8050001A8FDF7A7
S2140042E0F3F94020FFF798FE2B681844F0E700BF6C
S2140042F0E00C0020E41B002073B5002401A88DF814
S2140043000440FDF7A7FA2046FFF7CEFF404A414992
S214004310136F414803F007030B60D2F800113F4DBE
S21400432001F0030101604FF400203D49032B48666D
S2140043304FF40030486601F598318969C1F34001B1
S21400434029705DD0D2F8203103F00303981E434253
S2140043504341D2F82421334C02F00702022A08BF58
S21400436043F001034FF4C8702370FFF755FE002298
S2140043702D4B2E4918602E4E0B680132D2B20A2AF7
S21400438046F8040BF9D1034400EBC00003440B606D
S2140043902B78284D63B323781D4A3BB9D2F80031F9
S2140043A003F00303591E4B424B412370D2F80031F1
S2140043B003F00303022B25D0032B26D0012B17D1A5
S2140043C0FCF7AEFB024698B11B4B1C4EDC68002384
S2140043D01946C4F30B04013404EB84040138E4FBEF
S2140043E0060117F073F9FFF717FE2B6803442B60DE
S2140043F01F20FFF711FE2B6803442B6002B070BD30
S2140044000123A6E7FCF7A6FBDCE718F0FFF9D9E7DF
S21400441000800050E81B0020EC1B002055290020DF
S2140044200090005056290020B01B0020B41B00202E
S214004430B81B0020E41B002000C0015040420F00C3
S214004440074A0849D2F8203103F003030B60D2F87C
S2140044502431054A03F00703136018F014BB00BFAD
S21400446000800050F41B0020F01B002008B5104B05
S2140044701A78C2B100221A700E4B1A6F22F0070289
S21400448042F001021A67D3F8202142F00302C3F873
S2140044902021D3F8242122F0070242F00302C3F8B9
S2140044A02421FCF727FB0122034B5A6708BD00BFF7
S2140044B0542900200080005000E000500122154BD7
S2140044C010B55A67144B154C1B7813B3022019F01D
S2140044D0E3F8F0B100F076FAD8B1A36DD90302D5AF
S2140044E0E36D9A0715D40D4B9B6DDB0711D40122A3
S2140044F00B4B1A7019F0BBF8BDE81040094B0A4A7E
S2140045001860136F23F0070343F003031367FCF7E9
S214004510F1BA10BD00D000505629002000C000504F
S21400452053290020E01B0020008000500122014B90
S2140045301A70704754290020F8B51F4B1B78002BC3
S21400454039D01E4C2378B3B91D4B9A6DD10302D5D2
S214004550DA6D92072FD49B6DDB072CD419F087F801
S214004560184B194A1860136F23F0070343F0030330
S2140045701367FCF7BFFA19F07AF8124B134D1B6855
S214004580134EC01A2B78134F56F8232046F82300F4
S214004590111A3A681048521A0A213A600932B2FBD8
S2140045A0F1F20133DBB20260B3FBF1F201FB12332E
S2140045B02B7000232370F8BD5629002053290020B5
S2140045C000C00050E01B0020008000505229002050
S2140045D0B81B0020B41B0020B01B002008B518F044
S2140045E055FA124B12491A6F096822F007020A435D
S2140045F01A671049D3F82021096822F003020A43FB
S214004600C3F820210C49D3F82421096822F00702B8
S2140046100A43C3F82421094B1B7813B10122084B27
S2140046209A62BDE80840FCF765BA00BF00800050FB
S214004630E81B0020F41B0020F01B00205629002059
S21400464000E0005002280AD003280BD001280CD125
S214004650064A136923F00403136130BF7047002035
S214004660FDF73EB80020FDF769B8704700ED00E0A2
S214004670054B187818B1054B186800EBD000044BB2
S2140046801B681844704700BF56290020B01B002046
S214004690E41B00200122014B1A70704756290020A7
S2140046A0014B1878704700BF5629002038B518F01F
S2140046B0ECFF0025084B094C1A682368C31A2AB178
S2140046C023B15169994203D3C91A5161206038BD9C
S2140046D055615B1A9268F2E7001C0020FC1B002064
S2140046E0C38870B504460D463BB9FFF769FC8542A2
S2140046F0064602D218F024FF35460E4965610B685F
S2140047008BB90C60A3600DE0AD1A9A681846656117
S2140047106AB113465A69AA42F6D930B18460521B70
S214004720A3605A6170BD0020F4E70C60F7E79C6058
S214004730A260F7E7001C002038B5134D2B685B69B4
S21400474093B1124A022014681C4400F0F1FA204685
S21400475000F0BCFA00230E492A680B70D088800748
S21400476009D501230B7038BD022000F0E1FA0220C3
S21400477000F000FBEEE79268002AF4D0506903448C
S214004780012BEBD9EFE700BF001C0020FC1B00202C
S2140047905829002070B516469DF81420C0E9033647
S2140047A00271049ABDF818300260002204460D46D5
S2140047B08260C380EEB918F068FF2844A0619DB1FE
S2140047C02E4618F04EF90546FFF770FF3146204694
S2140047D0FFF786FF104B1B68A34201D1FFF7ACFF23
S2140047E0284618F042F902E0E36865617BB90020CC
S2140047F070BD18F04AFF3044A061002DE0D1E36898
S2140048006561002BDDD0204621689847D9E7204611
S21400481021689847EBE700BF001C002000220C49E7
S2140048200B687BB183420AD183687AB19360836850
S2140048301BB15A6941690A445A61002070471A46FA
S2140048409B68EEE70028EFD0022070470B60EEE78B
S214004850001C002070B518F00BF9144E054634788D
S214004860FCB9134B1C60134B1C60134B1C8000F0F0
S214004870F1F9012000F05CFA18F01DFF0F4B02461C
S214004880186020B9284618F0F9F8232070BD234692
S21400489040F2E7310A4816F019FF0A4B1860012368
S2140048A03370284618F0EAF80020EFE75929002070
S2140048B0001C0020FC1B0020E8280020041C002010
S2140048C018FCFFFFF81B002070B5044640B318F034
S2140048D0C8F8144E0546FFF7E9FE3068A04209D036
S2140048E02046FFF79BFF0446B0B1284618F0BDF8F7
S2140048F0204670BDFFF792FF04460028F5D13368C6
S2140049003BB9022000F020FA284618F0AEF8002442
S214004910EEE7FFF711FFF7E73368002BF4D1F0E777
S2140049202224E5E7001C002038B50C460546A8B151
S214004930A1B100230B7018F09BF80121084B1B68EF
S21400494033B918F09BF8002038BD9D4204D1217081
S2140049502278002AF9D0F4E79B68F1E72220F3E7F3
S214004960001C0020F8B506460F4618F081F8002512
S2140049700446124B1B6823B9204618F07FF81B200C
S21400498011E05A691544DA88B2420DD118F07DFE5E
S2140049900B4E3368C01AA8420AD3002320463B6059
S2140049A018F06CF80020F8BDFF2EEFD09B68E2E709
S2140049B018F06BFE33682B441B1AEFE7001C002030
S2140049C0FC1B002008B5074B187848B118F04FFEBE
S2140049D0054B1B689B69C01A02288CBF002001206B
S2140049E008BD00BF58290020001C0020014B186895
S2140049F0704700BF041C0020F8B50C4B05461B682A
S214004A000E4683420FD3002440F2E7302146084B7F
S214004A104FF47A721F680023E5FB070116F056FE76
S214004A2030602046F8BD2120FCE700BFF81B0020C0
S214004A30041C00202DE9F0419846002386B00D4660
S214004A40174606468DF8133080B30DF11301FFF7B5
S214004A506BFF9DF813305BBB284605A9FFF7CCFF1C
S214004A600446F8B9134B4FF47A7218680023A5FB76
S214004A70000116F02BFEC2F57A7189B2B1F57A7F85
S214004A8008BF0021BDF83430B183F483059A029341
S214004A909DF830301146CDE9008330463B46FFF79F
S214004AA079FE0446204606B0BDE8F0812224F9E7E8
S214004AB00224F7E7041C0020014B1868704700BF6B
S214004AC0F81B00200F4B10B51A689AB14FF47A7194
S214004AD0531E1342A0FB01010ED1B2FA82F2C2F1BC
S214004AE01F04531CD243E04001FA03F3184321FA93
S214004AF002F20243104610BD002316F0E7FD024600
S214004B00F8E700BF041C0020C2072DE9F84304465E
S214004B100BD5474A138801339BB21380FFF7C6FDB7
S214004B20444B1B680BB1FFF707FEA3077DD517F0B4
S214004B309FFF4FF0000805464646FFF7B7FD3D4F7E
S214004B403C680CB163698BB100223B4B012E1A7096
S214004B5003D118F0020F18BF1E70002C61D0FFF7AB
S214004B60EBFD2846BDE8F84317F088BF23465A6990
S214004B703AB91A792179914288BF1C469B68002B66
S214004B80F5D1284617F07AFF2569DDB118F07DFDCE
S214004B90A269A0EB02084FEAE873A84573F1000388
S214004BA011DB23691344A361E368B4F80680013679
S214004BB013B120462168984717F05AFF0546FFF7BD
S214004BC075FDBDE7A84617F053FF81462046FFF760
S214004BD025FE484617F052FF2369002BE4D0A38B2E
S214004BE0B5EB080533B1E28B13449BB2B3F57A7F7D
S214004BF00FD2E38317F03CFF804629462046FFF796
S214004C006FFDA369226940461344A36117F036FF7F
S214004C10CAE7A3F57A73E383A369013D013BA36169
S214004C20E8E7022000F090F89BE7BDE8F88300BFB5
S214004C30E8280020001C00205729002010B517F097
S214004C4017FF034B1C7817F019FF204610BD00BF56
S214004C50572900201FB50024194B012118689A888F
S214004C600290D3F806009B7A00903E20ADF80C2008
S214004C708DF80430FCF7E4F902A88DF808408DF8AA
S214004C800C40FDF791F9694601208DF80040FDF7CC
S214004C9047F940F2FF320B4B9A615A614FF0B0422F
S214004CA0936A13F00803FBD113620120FDF752F953
S214004CB04FF48052044BC3F880211A6004B010BD34
S214004CC0907D02000020005800E100E010B5044688
S214004CD017F0C7FE4FF0B042936A1907FCD4136A68
S214004CE0116C5269520604D4CA1A032A01D8994292
S214004CF00ED1E21A022A98BFDC1CB4F1FF3F38BF7F
S214004D00013C4FF0B04340221C6403F580539A6187
S214004D1017F0ABFE054A13783BB14FF0B041CB6BB2
S214004D2043F00203CB630023137010BDE10C002098
S214004D3000F001038207034A48BF43F04003936133
S214004D40704700BF00100058820700F001030AD524
S214004D500121064A43F0400311704FF0B041CA6B80
S214004D6022F00302CA63024A93617047E10C0020F6
S214004D7000200058830742BF4022014B5A6170470B
S214004D800010005810B517F073FE4FF0B0430446FD
S214004D905B695A06074A03F0010003F0510348BF57
S214004DA040F002005361FFF7AFFE2046BDE810401A
S214004DB017F064BE002000580A4B10B5D3F84032F6
S214004DC003F00303013B012B0BD817F04AFE044601
S214004DD001210220FFF77AF82046BDE8104017F0C0
S214004DE044BE10BD0080005010B50446FBF782FE9E
S214004DF00C4BA0F57A729A4212D84FF47A73B0FB35
S214004E00F3F05C43084BB3FBF0F3B4FBF3F002287B
S214004E1006D9BDE810400323B0FBF3F0FBF790B9CA
S214004E2010BD00BFFFC99A3B40420F00024A03492B
S214004E30034806F0A5BD00BF9C7D0200C07D0200B1
S214004E40187E020010B50A46044619B1024B00212E
S214004E501B68984710BD00BFF80A00200E4B0340A1
S214004E60B3F1607F06D1B1F5885F14BF6FF086009E
S214004E7000207047B3F1707F0BD101F4E043B3F527
S214004E80005F06D111F4E06F0CBF6FF086000020C3
S214004E9070476FF0860070470000C07F8A42F8B502
S214004EA006460C4600F0DB806F4922F4FF7323F0C1
S214004EB001038B420ED06D4B22F0FF01994209D0C0
S214004EC06B4822F47F7323F00303834202D0694BBE
S214004ED0994228D1684B24F0FF0199420FD114F073
S214004EE0FF000BD0654B40F00070984240F0B98050
S214004EF082EA0400FF288CBF00200120F8BD5B4B2F
S214004F009942ECD0A3F588539942E8D024F4FF7375
S214004F1023F00103B3F1062FE1D056488142DED0DC
S214004F2053498B42DBD004F0FE43B3F1A06F14D19B
S214004F3002F0FE43B3F1A06F40F0938082EA0403D0
S214004F4033F47E1340F08D8014F40040D6D0C4F3C2
S214004F500540C2F305429042CDE7B3F1407F6AD1E7
S214004F6002F0FE43B3F1407F7BD182EA040535F4BC
S214004F707E1576D131462046FFF770FF002870D1A7
S214004F803F4B12F47C1703EA02031BD0B3F1607F99
S214004F90C2F305473FD13B49D3B243F000738B427F
S214004FA03DD003F17E43043B0F2B01D83649CD5C40
S214004FB014F47C1FC4F3054333D1BD4214BF002054
S214004FC001209BE7B3F1607F0DD12E49D3B243F0A9
S214004FD000738B421DD003F17E43043B0F2BDAD8BF
S214004FE02A49CF5CD7E7B3F1707FE1D106F4E043FE
S214004FF0B3F5005F03D10127C6F302239F4006F4F2
S214005000E043B3F5005FD3D10125C6F302218D40FE
S214005010CEE71027BFE7B3F1707FC9D1EFE71025C1
S214005020C6E712F47C1F01D1AB4218D022047FF5EC
S21400503065AFBB425FE7B3F1106F12D124F01F607B
S21400504020F4702068B902F0FE43B3F1106F7FF4CD
S21400505055AF0F48104040F01060A042AEE7012068
S2140050604CE700204AE700BF0002000600130006D7
S214005070000400060009000600030006FF00000208
S2140050800000C07F03000002467E0200467E02004B
S2140050900000FFF62DE9F8431746002288461C4616
S2140050A000F05AFA054688BBD8F80060B6F80090BB
S2140050B009F4E043B3F5804FF36808BF27F0010713
S2140050C037EA03031AD10CB3254B24F0FF029A42A9
S2140050D01FD114F0FF0304D0224A43F0007393421A
S2140050E032D0224648463169FFF7D8FE074668B9EF
S2140050F0224648467169FFF7D1FE70BB6FF0840503
S21400510000233046C8F8003019F093F92846BDE869
S214005110F883154B9A42DCD0A3F588539A42D8D030
S21400512024F4FF7323F00103B3F1062FD1D00F4907
S2140051308A42CED00E4A9342CBD004F0FE43B3F15F
S214005140407F04D12304CCD56FF08605D8E7B3F1B1
S214005150A06FF7D0034B9C42C2E73D46D6E700BFA0
S21400516000030006FF000002001300060009000608
S2140051700004000638B500F0FE43B3F1407F044655
S2140051800D4602D06FF0860038BDFFF767FE002898
S214005190FAD114F47C1F12D0C4F30543032B13700A
S2140051A022D9284A2240B2F1607F3DD1264AE4B295
S2140051B044F0007494422BD1102BE5D9E2E7214B42
S2140051C02340B3F1607F15D11F49E3B243F000736B
S2140051D08B4202D110231370D6E703F17E43043BC3
S2140051E00F2B04D9002313706FF08500CCE7174906
S2140051F0CB5CD3E7B3F1707FF4D101F4E043B3F5B1
S214005200005FEFD10123C1F302218B40DBB2C5E77B
S21400521004F17E44043C0F2CB4D80D4A125D934230
S214005220B0D8142BB0D9DFE7B2F1707FAAD105F45D
S214005230E042B2F5005FA5D10122C5F30225AA40DF
S214005240EDE700BF0000C07F03000002467E0200BC
S214005250467E020037B50B4D0C462B787BB10023FB
S2140052600A460193014601AB281D18F053F920B9F0
S214005270019BA34218BF6FF0930003B030BD6FF0E0
S2140052808800FAE7081C00202DE9F04F9B46002313
S214005290924601F0FE4297B0B2F1806F0E46DDE90D
S2140052A02078DDF88890089305D0184619F0C1F8E4
S2140052B06FF086043CE00B464FF4807208A9FFF7B7
S2140052C0E9FE044618B1089819F0B3F830E0DDF8A6
S2140052D020C00DAC6546CDE914000FCD0FC495E88F
S2140052E00700BCF8003084E8070003F4E042B2F59B
S2140052F0005F20D113F4E06FC3F302211BD03848BF
S21400530026F4807282420AD000F50070864206D0EB
S2140053103448864203D0A0F53F4082420BD1012597
S2140053208D40102D12D9604619F083F86FF0830473
S2140053302646002548E042F20402934202D12A4B58
S2140053409E420BD0294B9E4244D10D25A84507D23C
S214005350604619F06EF86FF08904E9E70C25F5E76A
S214005360294609A8FFF776FF04460028ABD108981F
S214005370D0E9091287B307EB050C0E9CA8EB0503D2
S214005380240A93D10DF12408CDE90539CDE903BCF3
S2140053903346CDE9015ACDF800800DA8FDF774FF1D
S2140053A0044614F1860F08988ED019F042F8064687
S2140053B0002CBDD190B925B12A464146384621F089
S2140053C09FFCD9F800301D443046C9F8005017B08D
S2140053D0BDE8F08F0025CAE7BC46CEE70446A7E73F
S2140053E00010C00400FF4004000180040013C00445
S2140053F008B500F05FF8064B5A7812B10022C3E9F0
S2140054000122BDE808400C210148FFF71BBD00BF84
S214005410081C002070B50C4D2B7873B918F078F87E
S214005420044668B902230126C5E90100AE706B7018
S21400543000F038F8044618B92E700024204670BDD7
S214005440FFF7D6FFFAE700BF081C002000F1004275
S2140054500332022A38B504460D4609D82C21104BD3
S21400546001FB02339A68824211D06FF08B0010E085
S214005470012118F090FF78B1094B9A68944206D043
S2140054805A6B944206D01A6E9442EED158330020DE
S2140054902B6038BD2C33FAE76FF08700F9E700BFC2
S2140054A0141C00200122024B002083F88420704741
S2140054B0141C002070B5094C002526460421204601
S2140054C018F07AFF0135204618F018FB032D04F17A
S2140054D02C04F3D1002386F8843070BD141C002001
S2140054E0F8B51B4C064694F884300F464BB300259F
S2140054F02346294693F820001A46B8B125B91A79EA
S21400550012B1022808BF1D460131032903F12C03FE
S214005510F0D115B96FF08C0015E00421284618F07C
S2140055204BFF68B9284618F0E9FA2A460020094BCE
S214005530141BA4105C4304F10044033C34603A603E
S214005540F8BD6FF0880000233B603360F8E700BFCB
S214005550141C0020A38B2EBA2DE9FF4100230B60FC
S214005560394B804693F884300D461646002B68D09B
S214005570FFF76CFF0446A0B92EB9286804B0BDE852
S214005580F04118F043BF012E04D00024204604B09A
S214005590BDE8F0810521286804B0BDE8F04118F0A8
S2140055A00BBF10F18C0FF1D1294601A8FFF798FF29
S2140055B004460028EAD101232F68CDE90200C7F887
S2140055C0088038467B6003AA02A918F0DDFF04466F
S2140055D088B1DDE9020118F0D5FF2D6804212846C0
S2140055E018F0EAFE284618F089FA14F18C0F08BF66
S2140055F06FF08704CAE7DDE90212384618F009FAA8
S2140056000446DDE9020118F0BDFF002CE5D10221B9
S214005610384618F0D1FE04460028DED12868C36854
S214005620D90444BF43F48063C360C3689A0444BF8C
S21400563043F40063C360002EA0D0012EA5D105213F
S214005640AAE76FF08804A1E7141C002030B40D4DC3
S2140056502C681C606C685C6000249C605468DC608D
S21400566014881C8254885C82D4685C6114699C61CE
S214005670526930BCDA6119620A46014603F1240019
S21400568021F03EBB567E02002DE9F843232904464E
S2140056900F4691469846089E04D86FF0980528460F
S2140056A0BDE8F8830822194921F04BFB054600287F
S2140056B0F3D1A368002BF0D1216A243F8F42C8F8AB
S2140056C00010EAD3B1F5005FE7D271B9C9F800005F
S2140056D0E3687360238A3380638A73806369F36048
S2140056E0A3693361E3697361D9E7012018F01AF8FA
S2140056F0C9F8000030B1D8F8002004F1240121F0E8
S214005700FFFAE5E76FF08C05C9E700BF567E02009A
S214005710F7B505466B461646164A0C46106851689D
S21400572003C395F82A3008336B4413F8087CAB8D16
S214005730DA0609D4334622463946284618F0AEFF24
S21400574000F5FA7003B0F0BD204621F011FDAB8DD8
S21400575000F10A049B074FEAC40405D0304621F046
S21400576007FD04F50C740444E823781E584304FB34
S2140057700700E5E75E7E02009022174B10B51C6816
S214005780002102FB0044204621F005FB134B04F1E8
S21400579008001B680021DB7863761AF078F84FF46F
S2140057A00063E3842385072384F82A301323FF222B
S2140057B0A385236A84F8242043F01303236284F825
S2140057C05420074B074A2046C4E91C32C4E920325D
S2140057D0BDE8104018F08DBF9C1C0020701E0020F5
S2140057E0D6BE898E55555500F0B5104B02461E683C
S2140057F093F804C035464FF0FF3400239C4508DC80
S21400580091B1631C10D0902303FB046080F8242021
S214005810F0BD95F8247028469742F9D0FF2F08BFB0
S2140058201C4690350133E9E70020F1E79C1C002078
S21400583070B50446234D002842D0083001F014FD10
S2140058400026FF2304F1400084F82430E66121F0AE
S2140058500AFC04F1440021F006FC04F1480021F0A3
S21400586002FC04F14C0021F0FEFB04F1500021F094
S214005870FAFB2868144B201A00115843C0B218F0DF
S21400588004FF0146304618F0FBFEE06E10B100F053
S21400589037FEE666606E18B118F00AFF00236366EE
S2140058A0A06E18F001FF0023A36670BD286806FBF3
S2140058B00400FFF7BDFF01342B79A342F6DCF4E7C2
S2140058C09026F9E79C1C0020398EE338F7B504468D
